{
  "contractName": "Backpat",
  "abi": [
    {
      "constant": true,
      "inputs": [],
      "name": "totalShares",
      "outputs": [
        {
          "name": "",
          "type": "uint256"
        }
      ],
      "payable": false,
      "stateMutability": "view",
      "type": "function"
    },
    {
      "constant": false,
      "inputs": [],
      "name": "claim",
      "outputs": [],
      "payable": false,
      "stateMutability": "nonpayable",
      "type": "function"
    },
    {
      "constant": true,
      "inputs": [
        {
          "name": "",
          "type": "uint256"
        }
      ],
      "name": "payees",
      "outputs": [
        {
          "name": "",
          "type": "address"
        }
      ],
      "payable": false,
      "stateMutability": "view",
      "type": "function"
    },
    {
      "constant": true,
      "inputs": [
        {
          "name": "",
          "type": "address"
        }
      ],
      "name": "released",
      "outputs": [
        {
          "name": "",
          "type": "uint256"
        }
      ],
      "payable": false,
      "stateMutability": "view",
      "type": "function"
    },
    {
      "constant": true,
      "inputs": [
        {
          "name": "",
          "type": "address"
        }
      ],
      "name": "shares",
      "outputs": [
        {
          "name": "",
          "type": "uint256"
        }
      ],
      "payable": false,
      "stateMutability": "view",
      "type": "function"
    },
    {
      "constant": true,
      "inputs": [],
      "name": "totalReleased",
      "outputs": [
        {
          "name": "",
          "type": "uint256"
        }
      ],
      "payable": false,
      "stateMutability": "view",
      "type": "function"
    },
    {
      "inputs": [
        {
          "name": "_payees",
          "type": "address[]"
        },
        {
          "name": "_shares",
          "type": "uint256[]"
        }
      ],
      "payable": false,
      "stateMutability": "nonpayable",
      "type": "constructor"
    },
    {
      "payable": true,
      "stateMutability": "payable",
      "type": "fallback"
    },
    {
      "constant": true,
      "inputs": [
        {
          "name": "_payee",
          "type": "address"
        }
      ],
      "name": "checkAmount",
      "outputs": [
        {
          "name": "",
          "type": "uint256"
        }
      ],
      "payable": false,
      "stateMutability": "view",
      "type": "function"
    },
    {
      "constant": true,
      "inputs": [
        {
          "name": "_address",
          "type": "address"
        }
      ],
      "name": "isPayee",
      "outputs": [
        {
          "name": "",
          "type": "bool"
        }
      ],
      "payable": false,
      "stateMutability": "view",
      "type": "function"
    }
  ],
  "bytecode": "0x608060405260008055600060015534801561001957600080fd5b50604051610a03380380610a038339810180604052810190808051820192919060200180518201929190505050818160008151835114151561005a57600080fd5b600090505b82518110156100bc576100af838281518110151561007957fe5b90602001906020020151838381518110151561009157fe5b906020019060200201516100c6640100000000026401000000009004565b808060010191505061005f565b5050505050610251565b600073ffffffffffffffffffffffffffffffffffffffff168273ffffffffffffffffffffffffffffffffffffffff161415151561010257600080fd5b60008111151561011157600080fd5b6000600260008473ffffffffffffffffffffffffffffffffffffffff1673ffffffffffffffffffffffffffffffffffffffff1681526020019081526020016000205414151561015f57600080fd5b60048290806001815401808255809150509060018203906000526020600020016000909192909190916101000a81548173ffffffffffffffffffffffffffffffffffffffff021916908373ffffffffffffffffffffffffffffffffffffffff1602179055505080600260008473ffffffffffffffffffffffffffffffffffffffff1673ffffffffffffffffffffffffffffffffffffffff1681526020019081526020016000208190555061022b81600054610235640100000000026106f4179091906401000000009004565b6000819055505050565b6000818301905082811015151561024857fe5b80905092915050565b6107a3806102606000396000f30060806040526004361061008e576000357c0100000000000000000000000000000000000000000000000000000000900463ffffffff168063366653a9146100905780633a98ef39146100eb5780634e71d92d1461011657806363037b0c1461012d5780639852595c1461019a578063ce21f4b1146101f1578063ce7c2ac214610248578063e33b7de31461029f575b005b34801561009c57600080fd5b506100d1600480360381019080803573ffffffffffffffffffffffffffffffffffffffff1690602001909291905050506102ca565b604051808215151515815260200191505060405180910390f35b3480156100f757600080fd5b50610100610315565b6040518082815260200191505060405180910390f35b34801561012257600080fd5b5061012b61031b565b005b34801561013957600080fd5b506101586004803603810190808035906020019092919050505061058a565b604051808273ffffffffffffffffffffffffffffffffffffffff1673ffffffffffffffffffffffffffffffffffffffff16815260200191505060405180910390f35b3480156101a657600080fd5b506101db600480360381019080803573ffffffffffffffffffffffffffffffffffffffff1690602001909291905050506105c8565b6040518082815260200191505060405180910390f35b3480156101fd57600080fd5b50610232600480360381019080803573ffffffffffffffffffffffffffffffffffffffff1690602001909291905050506105e0565b6040518082815260200191505060405180910390f35b34801561025457600080fd5b50610289600480360381019080803573ffffffffffffffffffffffffffffffffffffffff1690602001909291905050506106d6565b6040518082815260200191505060405180910390f35b3480156102ab57600080fd5b506102b46106ee565b6040518082815260200191505060405180910390f35b600080600260008473ffffffffffffffffffffffffffffffffffffffff1673ffffffffffffffffffffffffffffffffffffffff16815260200190815260200160002054119050919050565b60005481565b60008060003392506000600260008573ffffffffffffffffffffffffffffffffffffffff1673ffffffffffffffffffffffffffffffffffffffff1681526020019081526020016000205411151561037157600080fd5b61039d6001543073ffffffffffffffffffffffffffffffffffffffff16316106f490919063ffffffff16565b9150610456600360008573ffffffffffffffffffffffffffffffffffffffff1673ffffffffffffffffffffffffffffffffffffffff1681526020019081526020016000205461044860005461043a600260008973ffffffffffffffffffffffffffffffffffffffff1673ffffffffffffffffffffffffffffffffffffffff168152602001908152602001600020548761071090919063ffffffff16565b61074890919063ffffffff16565b61075e90919063ffffffff16565b90506000811415151561046857600080fd5b803073ffffffffffffffffffffffffffffffffffffffff16311015151561048e57600080fd5b6104e081600360008673ffffffffffffffffffffffffffffffffffffffff1673ffffffffffffffffffffffffffffffffffffffff168152602001908152602001600020546106f490919063ffffffff16565b600360008573ffffffffffffffffffffffffffffffffffffffff1673ffffffffffffffffffffffffffffffffffffffff16815260200190815260200160002081905550610538816001546106f490919063ffffffff16565b6001819055508273ffffffffffffffffffffffffffffffffffffffff166108fc829081150290604051600060405180830381858888f19350505050158015610584573d6000803e3d6000fd5b50505050565b60048181548110151561059957fe5b906000526020600020016000915054906101000a900473ffffffffffffffffffffffffffffffffffffffff1681565b60036020528060005260406000206000915090505481565b60008060006106116001543073ffffffffffffffffffffffffffffffffffffffff16316106f490919063ffffffff16565b91506106ca600360008673ffffffffffffffffffffffffffffffffffffffff1673ffffffffffffffffffffffffffffffffffffffff168152602001908152602001600020546106bc6000546106ae600260008a73ffffffffffffffffffffffffffffffffffffffff1673ffffffffffffffffffffffffffffffffffffffff168152602001908152602001600020548761071090919063ffffffff16565b61074890919063ffffffff16565b61075e90919063ffffffff16565b90508092505050919050565b60026020528060005260406000206000915090505481565b60015481565b6000818301905082811015151561070757fe5b80905092915050565b6000808314156107235760009050610742565b818302905081838281151561073457fe5b0414151561073e57fe5b8090505b92915050565b6000818381151561075557fe5b04905092915050565b600082821115151561076c57fe5b8183039050929150505600a165627a7a723058201d0e9d020d271ed8257cc0088b8fabef3fccad776c4530dac2ee3eeb704d832e0029",
  "source": "pragma solidity ^0.4.20;\n\nimport \"zeppelin-solidity/contracts/payment/SplitPayment.sol\";\nimport \"zeppelin-solidity/contracts/math/SafeMath.sol\";\n\n\ncontract Backpat is SplitPayment {\n    function Backpat(address[] _payees, uint256[] _shares)\n        public\n        SplitPayment(_payees, _shares)\n        {}\n\n    function () payable {}\n\n    function checkAmount(address _payee) public view returns (uint256) {\n        uint256 totalReceived = address(this).balance.add(totalReleased);\n        uint256 payeeAmount = totalReceived.mul(shares[_payee]).div(totalShares).sub(released[_payee]);\n        return payeeAmount;\n    }\n\n    function isPayee(address _address) public view returns (bool) {\n        return shares[_address] > 0;\n    }\n}\n",
  "sourcePath": "/Users/igor/Work/Backpat/backpat-truffle/contracts/Backpat.sol",
  "compiler": {
    "name": "solc",
    "version": "0.4.23+commit.124ca40d.Emscripten.clang"
  },
  "schemaVersion": "2.0.0",
  "updatedAt": "2018-04-28T00:54:25.000Z"
}