{
  "contractName": "Ourtips",
  "abi": [
    {
      "constant": true,
      "inputs": [],
      "name": "name",
      "outputs": [
        {
          "name": "",
          "type": "string"
        }
      ],
      "payable": false,
      "stateMutability": "view",
      "type": "function"
    },
    {
      "constant": true,
      "inputs": [],
      "name": "totalShares",
      "outputs": [
        {
          "name": "",
          "type": "uint256"
        }
      ],
      "payable": false,
      "stateMutability": "view",
      "type": "function"
    },
    {
      "constant": false,
      "inputs": [],
      "name": "claim",
      "outputs": [],
      "payable": false,
      "stateMutability": "nonpayable",
      "type": "function"
    },
    {
      "constant": true,
      "inputs": [
        {
          "name": "",
          "type": "uint256"
        }
      ],
      "name": "payees",
      "outputs": [
        {
          "name": "",
          "type": "address"
        }
      ],
      "payable": false,
      "stateMutability": "view",
      "type": "function"
    },
    {
      "constant": true,
      "inputs": [
        {
          "name": "",
          "type": "address"
        }
      ],
      "name": "released",
      "outputs": [
        {
          "name": "",
          "type": "uint256"
        }
      ],
      "payable": false,
      "stateMutability": "view",
      "type": "function"
    },
    {
      "constant": true,
      "inputs": [
        {
          "name": "",
          "type": "address"
        }
      ],
      "name": "shares",
      "outputs": [
        {
          "name": "",
          "type": "uint256"
        }
      ],
      "payable": false,
      "stateMutability": "view",
      "type": "function"
    },
    {
      "constant": true,
      "inputs": [],
      "name": "totalReleased",
      "outputs": [
        {
          "name": "",
          "type": "uint256"
        }
      ],
      "payable": false,
      "stateMutability": "view",
      "type": "function"
    },
    {
      "inputs": [
        {
          "name": "_payees",
          "type": "address[]"
        },
        {
          "name": "_shares",
          "type": "uint256[]"
        },
        {
          "name": "_name",
          "type": "string"
        }
      ],
      "payable": false,
      "stateMutability": "nonpayable",
      "type": "constructor"
    },
    {
      "payable": true,
      "stateMutability": "payable",
      "type": "fallback"
    },
    {
      "constant": true,
      "inputs": [
        {
          "name": "_payee",
          "type": "address"
        }
      ],
      "name": "checkAmount",
      "outputs": [
        {
          "name": "",
          "type": "uint256"
        }
      ],
      "payable": false,
      "stateMutability": "view",
      "type": "function"
    },
    {
      "constant": true,
      "inputs": [
        {
          "name": "_address",
          "type": "address"
        }
      ],
      "name": "isPayee",
      "outputs": [
        {
          "name": "",
          "type": "bool"
        }
      ],
      "payable": false,
      "stateMutability": "view",
      "type": "function"
    },
    {
      "constant": false,
      "inputs": [],
      "name": "sendOut",
      "outputs": [
        {
          "name": "",
          "type": "bool"
        }
      ],
      "payable": false,
      "stateMutability": "nonpayable",
      "type": "function"
    }
  ],
  "bytecode": "0x60806040526000805560006001553480156200001a57600080fd5b5060405162000f7938038062000f7983398101806040528101908080518201929190602001805182019291906020018051820192919050505082826000815183511415156200006857600080fd5b600090505b8251811015620000d057620000c283828151811015156200008a57fe5b906020019060200201518383815181101515620000a357fe5b90602001906020020151620000f5640100000000026401000000009004565b80806001019150506200006d565b5050508060059080519060200190620000eb92919062000287565b5050505062000336565b600073ffffffffffffffffffffffffffffffffffffffff168273ffffffffffffffffffffffffffffffffffffffff16141515156200013257600080fd5b6000811115156200014257600080fd5b6000600260008473ffffffffffffffffffffffffffffffffffffffff1673ffffffffffffffffffffffffffffffffffffffff168152602001908152602001600020541415156200019157600080fd5b60048290806001815401808255809150509060018203906000526020600020016000909192909190916101000a81548173ffffffffffffffffffffffffffffffffffffffff021916908373ffffffffffffffffffffffffffffffffffffffff1602179055505080600260008473ffffffffffffffffffffffffffffffffffffffff1673ffffffffffffffffffffffffffffffffffffffff1681526020019081526020016000208190555062000260816000546200026a6401000000000262000b84179091906401000000009004565b6000819055505050565b600081830190508281101515156200027e57fe5b80905092915050565b828054600181600116156101000203166002900490600052602060002090601f016020900481019282601f10620002ca57805160ff1916838001178555620002fb565b82800160010185558215620002fb579182015b82811115620002fa578251825591602001919060010190620002dd565b5b5090506200030a91906200030e565b5090565b6200033391905b808211156200032f57600081600090555060010162000315565b5090565b90565b610c3380620003466000396000f3006080604052600436106100a4576000357c0100000000000000000000000000000000000000000000000000000000900463ffffffff16806306fdde03146100a65780631b0d3f4014610136578063366653a9146101655780633a98ef39146101c05780634e71d92d146101eb57806363037b0c146102025780639852595c1461026f578063ce21f4b1146102c6578063ce7c2ac21461031d578063e33b7de314610374575b005b3480156100b257600080fd5b506100bb61039f565b6040518080602001828103825283818151815260200191508051906020019080838360005b838110156100fb5780820151818401526020810190506100e0565b50505050905090810190601f1680156101285780820380516001836020036101000a031916815260200191505b509250505060405180910390f35b34801561014257600080fd5b5061014b61043d565b604051808215151515815260200191505060405180910390f35b34801561017157600080fd5b506101a6600480360381019080803573ffffffffffffffffffffffffffffffffffffffff1690602001909291905050506104f0565b604051808215151515815260200191505060405180910390f35b3480156101cc57600080fd5b506101d561053b565b6040518082815260200191505060405180910390f35b3480156101f757600080fd5b50610200610541565b005b34801561020e57600080fd5b5061022d600480360381019080803590602001909291905050506107b0565b604051808273ffffffffffffffffffffffffffffffffffffffff1673ffffffffffffffffffffffffffffffffffffffff16815260200191505060405180910390f35b34801561027b57600080fd5b506102b0600480360381019080803573ffffffffffffffffffffffffffffffffffffffff1690602001909291905050506107ee565b6040518082815260200191505060405180910390f35b3480156102d257600080fd5b50610307600480360381019080803573ffffffffffffffffffffffffffffffffffffffff169060200190929190505050610806565b6040518082815260200191505060405180910390f35b34801561032957600080fd5b5061035e600480360381019080803573ffffffffffffffffffffffffffffffffffffffff1690602001909291905050506108fc565b6040518082815260200191505060405180910390f35b34801561038057600080fd5b50610389610914565b6040518082815260200191505060405180910390f35b60058054600181600116156101000203166002900480601f0160208091040260200160405190810160405280929190818152602001828054600181600116156101000203166002900480156104355780601f1061040a57610100808354040283529160200191610435565b820191906000526020600020905b81548152906001019060200180831161041857829003601f168201915b505050505081565b600080600090505b6004805490508110156104ec57600061049660048381548110151561046657fe5b9060005260206000200160009054906101000a900473ffffffffffffffffffffffffffffffffffffffff16610806565b11156104df576104de6004828154811015156104ae57fe5b9060005260206000200160009054906101000a900473ffffffffffffffffffffffffffffffffffffffff1661091a565b5b8080600101915050610445565b5090565b600080600260008473ffffffffffffffffffffffffffffffffffffffff1673ffffffffffffffffffffffffffffffffffffffff16815260200190815260200160002054119050919050565b60005481565b60008060003392506000600260008573ffffffffffffffffffffffffffffffffffffffff1673ffffffffffffffffffffffffffffffffffffffff1681526020019081526020016000205411151561059757600080fd5b6105c36001543073ffffffffffffffffffffffffffffffffffffffff1631610b8490919063ffffffff16565b915061067c600360008573ffffffffffffffffffffffffffffffffffffffff1673ffffffffffffffffffffffffffffffffffffffff1681526020019081526020016000205461066e600054610660600260008973ffffffffffffffffffffffffffffffffffffffff1673ffffffffffffffffffffffffffffffffffffffff1681526020019081526020016000205487610ba090919063ffffffff16565b610bd890919063ffffffff16565b610bee90919063ffffffff16565b90506000811415151561068e57600080fd5b803073ffffffffffffffffffffffffffffffffffffffff1631101515156106b457600080fd5b61070681600360008673ffffffffffffffffffffffffffffffffffffffff1673ffffffffffffffffffffffffffffffffffffffff16815260200190815260200160002054610b8490919063ffffffff16565b600360008573ffffffffffffffffffffffffffffffffffffffff1673ffffffffffffffffffffffffffffffffffffffff1681526020019081526020016000208190555061075e81600154610b8490919063ffffffff16565b6001819055508273ffffffffffffffffffffffffffffffffffffffff166108fc829081150290604051600060405180830381858888f193505050501580156107aa573d6000803e3d6000fd5b50505050565b6004818154811015156107bf57fe5b906000526020600020016000915054906101000a900473ffffffffffffffffffffffffffffffffffffffff1681565b60036020528060005260406000206000915090505481565b60008060006108376001543073ffffffffffffffffffffffffffffffffffffffff1631610b8490919063ffffffff16565b91506108f0600360008673ffffffffffffffffffffffffffffffffffffffff1673ffffffffffffffffffffffffffffffffffffffff168152602001908152602001600020546108e26000546108d4600260008a73ffffffffffffffffffffffffffffffffffffffff1673ffffffffffffffffffffffffffffffffffffffff1681526020019081526020016000205487610ba090919063ffffffff16565b610bd890919063ffffffff16565b610bee90919063ffffffff16565b90508092505050919050565b60026020528060005260406000206000915090505481565b60015481565b6000806000600260008573ffffffffffffffffffffffffffffffffffffffff1673ffffffffffffffffffffffffffffffffffffffff1681526020019081526020016000205411151561096b57600080fd5b6109976001543073ffffffffffffffffffffffffffffffffffffffff1631610b8490919063ffffffff16565b9150610a50600360008573ffffffffffffffffffffffffffffffffffffffff1673ffffffffffffffffffffffffffffffffffffffff16815260200190815260200160002054610a42600054610a34600260008973ffffffffffffffffffffffffffffffffffffffff1673ffffffffffffffffffffffffffffffffffffffff1681526020019081526020016000205487610ba090919063ffffffff16565b610bd890919063ffffffff16565b610bee90919063ffffffff16565b905060008114151515610a6257600080fd5b803073ffffffffffffffffffffffffffffffffffffffff163110151515610a8857600080fd5b610ada81600360008673ffffffffffffffffffffffffffffffffffffffff1673ffffffffffffffffffffffffffffffffffffffff16815260200190815260200160002054610b8490919063ffffffff16565b600360008573ffffffffffffffffffffffffffffffffffffffff1673ffffffffffffffffffffffffffffffffffffffff16815260200190815260200160002081905550610b3281600154610b8490919063ffffffff16565b6001819055508273ffffffffffffffffffffffffffffffffffffffff166108fc829081150290604051600060405180830381858888f19350505050158015610b7e573d6000803e3d6000fd5b50505050565b60008183019050828110151515610b9757fe5b80905092915050565b600080831415610bb35760009050610bd2565b8183029050818382811515610bc457fe5b04141515610bce57fe5b8090505b92915050565b60008183811515610be557fe5b04905092915050565b6000828211151515610bfc57fe5b8183039050929150505600a165627a7a723058206c7b2ed07a11f7c3ad08a8f92c7cfc6d47a32d1bfa5b104e8c8b18239d8f13ed0029",
  "source": "pragma solidity ^0.4.20;\n\nimport \"zeppelin-solidity/contracts/payment/SplitPayment.sol\";\nimport \"zeppelin-solidity/contracts/math/SafeMath.sol\";\n\n\ncontract Ourtips is SplitPayment {\n    string public name;\n\n    function Ourtips(address[] _payees, uint256[] _shares, string _name)\n        public\n        SplitPayment(_payees, _shares)\n    {\n        name = _name;\n    }\n\n    function () public payable {}\n\n    function checkAmount(address _payee) public view returns (uint256) {\n        uint256 totalReceived = address(this).balance.add(totalReleased);\n        uint256 payeeAmount = totalReceived.mul(shares[_payee]).div(totalShares).sub(released[_payee]);\n        return payeeAmount;\n    }\n\n    function isPayee(address _address) public view returns (bool) {\n        return shares[_address] > 0;\n    }\n\n    function sendOut() public returns (bool) {\n        for (uint i = 0; i < payees.length; i++) {\n            if (checkAmount(payees[i]) > 0) {\n                transfer(payees[i]);\n            }\n        }\n    }\n\n    function transfer(address _payee) internal {\n        require(shares[_payee] > 0);\n        uint256 totalReceived = address(this).balance.add(totalReleased);\n        uint256 payment = totalReceived.mul(shares[_payee]).div(totalShares).sub(released[_payee]);\n\n        require(payment != 0);\n        require(address(this).balance >= payment);\n\n        released[_payee] = released[_payee].add(payment);\n        totalReleased = totalReleased.add(payment);\n\n        _payee.transfer(payment);\n    }\n}\n",
  "sourcePath": "/Users/igor/Work/Ourtips/ourtips-truffle/contracts/Ourtips.sol",
  "compiler": {
    "name": "solc",
    "version": "0.4.23+commit.124ca40d.Emscripten.clang"
  },
  "schemaVersion": "2.0.0",
  "updatedAt": "2018-05-01T01:23:16.495Z"
}