{
  "contractName": "Backpat",
  "abi": [
    {
      "constant": true,
      "inputs": [],
      "name": "totalShares",
      "outputs": [
        {
          "name": "",
          "type": "uint256"
        }
      ],
      "payable": false,
      "stateMutability": "view",
      "type": "function"
    },
    {
      "constant": false,
      "inputs": [],
      "name": "claim",
      "outputs": [],
      "payable": false,
      "stateMutability": "nonpayable",
      "type": "function"
    },
    {
      "constant": true,
      "inputs": [
        {
          "name": "",
          "type": "uint256"
        }
      ],
      "name": "payees",
      "outputs": [
        {
          "name": "",
          "type": "address"
        }
      ],
      "payable": false,
      "stateMutability": "view",
      "type": "function"
    },
    {
      "constant": true,
      "inputs": [
        {
          "name": "",
          "type": "address"
        }
      ],
      "name": "released",
      "outputs": [
        {
          "name": "",
          "type": "uint256"
        }
      ],
      "payable": false,
      "stateMutability": "view",
      "type": "function"
    },
    {
      "constant": true,
      "inputs": [
        {
          "name": "",
          "type": "address"
        }
      ],
      "name": "shares",
      "outputs": [
        {
          "name": "",
          "type": "uint256"
        }
      ],
      "payable": false,
      "stateMutability": "view",
      "type": "function"
    },
    {
      "constant": true,
      "inputs": [],
      "name": "totalReleased",
      "outputs": [
        {
          "name": "",
          "type": "uint256"
        }
      ],
      "payable": false,
      "stateMutability": "view",
      "type": "function"
    },
    {
      "inputs": [
        {
          "name": "_payees",
          "type": "address[]"
        },
        {
          "name": "_shares",
          "type": "uint256[]"
        }
      ],
      "payable": false,
      "stateMutability": "nonpayable",
      "type": "constructor"
    },
    {
      "payable": true,
      "stateMutability": "payable",
      "type": "fallback"
    },
    {
      "constant": true,
      "inputs": [
        {
          "name": "_payee",
          "type": "address"
        }
      ],
      "name": "checkAmount",
      "outputs": [
        {
          "name": "",
          "type": "uint256"
        }
      ],
      "payable": false,
      "stateMutability": "view",
      "type": "function"
    },
    {
      "constant": true,
      "inputs": [
        {
          "name": "_address",
          "type": "address"
        }
      ],
      "name": "isPayee",
      "outputs": [
        {
          "name": "",
          "type": "bool"
        }
      ],
      "payable": false,
      "stateMutability": "view",
      "type": "function"
    },
    {
      "constant": false,
      "inputs": [],
      "name": "sendOut",
      "outputs": [
        {
          "name": "",
          "type": "bool"
        }
      ],
      "payable": false,
      "stateMutability": "nonpayable",
      "type": "function"
    }
  ],
  "bytecode": "0x608060405260008055600060015534801561001957600080fd5b50604051610d0f380380610d0f8339810180604052810190808051820192919060200180518201929190505050818160008151835114151561005a57600080fd5b600090505b82518110156100bc576100af838281518110151561007957fe5b90602001906020020151838381518110151561009157fe5b906020019060200201516100c6640100000000026401000000009004565b808060010191505061005f565b5050505050610251565b600073ffffffffffffffffffffffffffffffffffffffff168273ffffffffffffffffffffffffffffffffffffffff161415151561010257600080fd5b60008111151561011157600080fd5b6000600260008473ffffffffffffffffffffffffffffffffffffffff1673ffffffffffffffffffffffffffffffffffffffff1681526020019081526020016000205414151561015f57600080fd5b60048290806001815401808255809150509060018203906000526020600020016000909192909190916101000a81548173ffffffffffffffffffffffffffffffffffffffff021916908373ffffffffffffffffffffffffffffffffffffffff1602179055505080600260008473ffffffffffffffffffffffffffffffffffffffff1673ffffffffffffffffffffffffffffffffffffffff1681526020019081526020016000208190555061022b8160005461023564010000000002610a00179091906401000000009004565b6000819055505050565b6000818301905082811015151561024857fe5b80905092915050565b610aaf806102606000396000f300608060405260043610610099576000357c0100000000000000000000000000000000000000000000000000000000900463ffffffff1680631b0d3f401461009b578063366653a9146100ca5780633a98ef39146101255780634e71d92d1461015057806363037b0c146101675780639852595c146101d4578063ce21f4b11461022b578063ce7c2ac214610282578063e33b7de3146102d9575b005b3480156100a757600080fd5b506100b0610304565b604051808215151515815260200191505060405180910390f35b3480156100d657600080fd5b5061010b600480360381019080803573ffffffffffffffffffffffffffffffffffffffff16906020019092919050505061036c565b604051808215151515815260200191505060405180910390f35b34801561013157600080fd5b5061013a6103b7565b6040518082815260200191505060405180910390f35b34801561015c57600080fd5b506101656103bd565b005b34801561017357600080fd5b506101926004803603810190808035906020019092919050505061062c565b604051808273ffffffffffffffffffffffffffffffffffffffff1673ffffffffffffffffffffffffffffffffffffffff16815260200191505060405180910390f35b3480156101e057600080fd5b50610215600480360381019080803573ffffffffffffffffffffffffffffffffffffffff16906020019092919050505061066a565b6040518082815260200191505060405180910390f35b34801561023757600080fd5b5061026c600480360381019080803573ffffffffffffffffffffffffffffffffffffffff169060200190929190505050610682565b6040518082815260200191505060405180910390f35b34801561028e57600080fd5b506102c3600480360381019080803573ffffffffffffffffffffffffffffffffffffffff169060200190929190505050610778565b6040518082815260200191505060405180910390f35b3480156102e557600080fd5b506102ee610790565b6040518082815260200191505060405180910390f35b600080600090505b6004805490508110156103685761035b60048281548110151561032b57fe5b9060005260206000200160009054906101000a900473ffffffffffffffffffffffffffffffffffffffff16610796565b808060010191505061030c565b5090565b600080600260008473ffffffffffffffffffffffffffffffffffffffff1673ffffffffffffffffffffffffffffffffffffffff16815260200190815260200160002054119050919050565b60005481565b60008060003392506000600260008573ffffffffffffffffffffffffffffffffffffffff1673ffffffffffffffffffffffffffffffffffffffff1681526020019081526020016000205411151561041357600080fd5b61043f6001543073ffffffffffffffffffffffffffffffffffffffff1631610a0090919063ffffffff16565b91506104f8600360008573ffffffffffffffffffffffffffffffffffffffff1673ffffffffffffffffffffffffffffffffffffffff168152602001908152602001600020546104ea6000546104dc600260008973ffffffffffffffffffffffffffffffffffffffff1673ffffffffffffffffffffffffffffffffffffffff1681526020019081526020016000205487610a1c90919063ffffffff16565b610a5490919063ffffffff16565b610a6a90919063ffffffff16565b90506000811415151561050a57600080fd5b803073ffffffffffffffffffffffffffffffffffffffff16311015151561053057600080fd5b61058281600360008673ffffffffffffffffffffffffffffffffffffffff1673ffffffffffffffffffffffffffffffffffffffff16815260200190815260200160002054610a0090919063ffffffff16565b600360008573ffffffffffffffffffffffffffffffffffffffff1673ffffffffffffffffffffffffffffffffffffffff168152602001908152602001600020819055506105da81600154610a0090919063ffffffff16565b6001819055508273ffffffffffffffffffffffffffffffffffffffff166108fc829081150290604051600060405180830381858888f19350505050158015610626573d6000803e3d6000fd5b50505050565b60048181548110151561063b57fe5b906000526020600020016000915054906101000a900473ffffffffffffffffffffffffffffffffffffffff1681565b60036020528060005260406000206000915090505481565b60008060006106b36001543073ffffffffffffffffffffffffffffffffffffffff1631610a0090919063ffffffff16565b915061076c600360008673ffffffffffffffffffffffffffffffffffffffff1673ffffffffffffffffffffffffffffffffffffffff1681526020019081526020016000205461075e600054610750600260008a73ffffffffffffffffffffffffffffffffffffffff1673ffffffffffffffffffffffffffffffffffffffff1681526020019081526020016000205487610a1c90919063ffffffff16565b610a5490919063ffffffff16565b610a6a90919063ffffffff16565b90508092505050919050565b60026020528060005260406000206000915090505481565b60015481565b6000806000600260008573ffffffffffffffffffffffffffffffffffffffff1673ffffffffffffffffffffffffffffffffffffffff168152602001908152602001600020541115156107e757600080fd5b6108136001543073ffffffffffffffffffffffffffffffffffffffff1631610a0090919063ffffffff16565b91506108cc600360008573ffffffffffffffffffffffffffffffffffffffff1673ffffffffffffffffffffffffffffffffffffffff168152602001908152602001600020546108be6000546108b0600260008973ffffffffffffffffffffffffffffffffffffffff1673ffffffffffffffffffffffffffffffffffffffff1681526020019081526020016000205487610a1c90919063ffffffff16565b610a5490919063ffffffff16565b610a6a90919063ffffffff16565b9050600081141515156108de57600080fd5b803073ffffffffffffffffffffffffffffffffffffffff16311015151561090457600080fd5b61095681600360008673ffffffffffffffffffffffffffffffffffffffff1673ffffffffffffffffffffffffffffffffffffffff16815260200190815260200160002054610a0090919063ffffffff16565b600360008573ffffffffffffffffffffffffffffffffffffffff1673ffffffffffffffffffffffffffffffffffffffff168152602001908152602001600020819055506109ae81600154610a0090919063ffffffff16565b6001819055508273ffffffffffffffffffffffffffffffffffffffff166108fc829081150290604051600060405180830381858888f193505050501580156109fa573d6000803e3d6000fd5b50505050565b60008183019050828110151515610a1357fe5b80905092915050565b600080831415610a2f5760009050610a4e565b8183029050818382811515610a4057fe5b04141515610a4a57fe5b8090505b92915050565b60008183811515610a6157fe5b04905092915050565b6000828211151515610a7857fe5b8183039050929150505600a165627a7a72305820899fce96fb6bf664713fe5050f7e849bbfd127da556c334d7b7be834761a8d050029",
  "source": "pragma solidity ^0.4.20;\n\nimport \"zeppelin-solidity/contracts/payment/SplitPayment.sol\";\nimport \"zeppelin-solidity/contracts/math/SafeMath.sol\";\n\n\ncontract Backpat is SplitPayment {\n    function Backpat(address[] _payees, uint256[] _shares)\n        public\n        SplitPayment(_payees, _shares)\n        {}\n\n    function () payable {}\n\n    function checkAmount(address _payee) public view returns (uint256) {\n        uint256 totalReceived = address(this).balance.add(totalReleased);\n        uint256 payeeAmount = totalReceived.mul(shares[_payee]).div(totalShares).sub(released[_payee]);\n        return payeeAmount;\n    }\n\n    function isPayee(address _address) public view returns (bool) {\n        return shares[_address] > 0;\n    }\n\n    function sendOut() public returns (bool) {\n        for (uint i = 0; i < payees.length; i++) {\n            transfer(payees[i]);\n        }\n    }\n\n    function transfer(address _payee) internal {\n        require(shares[_payee] > 0);\n        uint256 totalReceived = address(this).balance.add(totalReleased);\n        uint256 payment = totalReceived.mul(shares[_payee]).div(totalShares).sub(released[_payee]);\n\n        require(payment != 0);\n        require(address(this).balance >= payment);\n\n        released[_payee] = released[_payee].add(payment);\n        totalReleased = totalReleased.add(payment);\n\n        _payee.transfer(payment);\n    }\n}\n",
  "sourcePath": "/Users/igor/Work/Backpat/backpat-truffle/contracts/Backpat.sol",
  "compiler": {
    "name": "solc",
    "version": "0.4.23+commit.124ca40d.Emscripten.clang"
  },
  "schemaVersion": "2.0.0",
  "updatedAt": "2018-04-30T21:20:21.625Z"
}